:020000040800F2
:1000000010150020AD020008C151000895410008FC
:100010007D4C000865100008E57A0008000000002B
:100020000000000000000000000000003966000829
:100030006910000800000000E5650008D5660008AA
:10004000C7020008C7020008C7020008C70200086C
:10005000C7020008C70200086D100008C7020008A8
:10006000C7020008C7020008C7020008C70200084C
:10007000C7020008C7020008C7020008C70200083C
:10008000C7020008C7020008C702000800000000FD
:1000900000000000000000000000000075100008D3
:1000A000C7020008C7020008C7020008C70200080C
:1000B000C7020008C7020008C7020008C7020008FC
:1000C000C7020008C7020008C7020008C7020008EC
:1000D000C7020008C7020008C702000800000000AD
:1000E000C7020008C7020008C7020008000000009D
:1000F000000000000000000000000000C70200082F
:1001000000000000C7020008C7020008C70200087C
:1001100000000000000000000000000000000000DF
:10012000C7020008C7020008C7020008C70200088B
:10013000C7020008000000000000000000000000EE
:10014000000000000000000000000000D965000869
:10015000C7020008C7020008C7020008C70200085B
:10016000C7020008C70200080000000000000000ED
:10017000000000000000000000000000000000007F
:1001800000000000C702000800000000000000009E
:10019000C7020008C702000800F002F800F077F874
:1001A00014A696E8000CB244B344DA4501D100F03D
:1001B0006EF8BAE80F000FA696E83000A5EB04052C
:1001C00004EB0607AAEB0704A7F101074FEA151590
:1001D0004FEA3414A4F10104AC4201D300F057F803
:1001E00013F0010F18BFFB1A43F0010300F001F8F0
:1001F000DBE71847C0A00000E0A000000A444FF071
:10020000000C10F8013B13F0070408BF10F8014B75
:100210001D1108BF10F8015B641E05D010F8016BBA
:10022000641E01F8016BF9D113F0080F1EBF10F81E
:10023000014BAD1C0C1B09D16D1E58BF01F801CB41
:10024000FAD505E014F8016B01F8016B6D1EF9D5C4
:100250009142D6D37047000070470000002300246D
:1002600000250026103A28BF78C1FBD8520728BFC6
:1002700030C148BF0B607047642900F0EB8000205C
:1002800070471FB508F0EBF91FBD10B510BD00F0A9
:1002900064FB1146FFF7F5FF07F044FC00F082FB1A
:1002A00003B4FFF7F2FF03BC00F08AFB0948804764
:1002B00009480047FEE7FEE7FEE7FEE7FEE7FEE748
:1002C000FEE7FEE7FEE7FEE704480549054A064B60
:1002D000704700008167000899010008100F002096
:1002E00010150020101100201011002053EA020CFC
:1002F00000F069802DE9F04B4FF00006002B1FBF86
:10030000B3FA83F503FA05F424FA05F65E4012BF4A
:100310001643B2FA82F502FA05F4C5F120051EBFB4
:1003200022FA05FC44EA0C04203556EA044C4FEA54
:10033000144418BF641C4FF000084FF000099042AD
:1003400071EB030C39D3002919BFB1FA81F701FA17
:1003500007F6B0FA80F700FA07F6C7F120071EBFCC
:1003600020FA07FC46EA0C062037B6FBF4FCA7EBA4
:100370000507103F07F01F0BCBF120062CFA06F6FD
:100380000CFA0BFB44BFB3460026202FA4BF5E46E9
:100390004FF0000B5BEA060C08BF4FF0010B19EBA6
:1003A0000B0948EB0608ABFB027C06FB02CC0BFBFF
:1003B00003CCC01B71EB0C01C1E70B460246414662
:1003C0004846BDE8F08B13B5084318BF4FF0FF3027
:1003D0000146AFF30080BDE81C4070470FB41CB568
:1003E000074B06AA7B4469460090059800F06BFA1B
:1003F0000020694600F07AFA1CBC5DF814FB00008E
:100400000505000070B5044685690068C10601D580
:10041000302600E02026C00707D070BDD4E90121B6
:1004200030469047206A401C20626D1EF6D570BD94
:1004300070B5044685690078C00707D170BDD4E95E
:10044000012120209047206A401C20626D1EF6D5B5
:1004500070BD00002DE9F0410646002410687529A2
:10046000314616A510D0AFF30080002802DA4042D2
:1004700013A507E031688A0701D512A502E04907F4
:1004800004D511A5012401E0AFF3008000210A2268
:1004900006F1240709E0B0FBF2FCB0FBF2F302FB2B
:1004A0001C00303078541846491C0028F3D12346EC
:1004B0002A463046BDE8F04100F0A7B90000000030
:1004C0002D0000002B000000200000002DE9F05F4F
:1004D000894604464FF0000ADFF874B1FB44C0F8C7
:1004E00020A02046E1688847002874D0252806D03F
:1004F000D4E901219047206A401C2062F1E70026E0
:100500005F462046E16888472028054607DB312DF5
:1005100005D2781910F8200C08B10643F1E7B007AE
:1005200001D526F00406C4F81CA00027C4F818A0C2
:100530002A2D09D0284608F08BF838B304EB870839
:10054000303DC8F8185019E059F8041B204604EB58
:1005500087029161E1688847012F054618D1E0695B
:10056000002820DA26F020061DE0D8F8180000EB5D
:10057000800005EB40003038C8F818002046E168DC
:100580008847054608F064F80028EED1012F0AD00C
:100590002E2D08D12046E16888477F1C0546022F92
:1005A00046F02006C4DBA069002803DA404246F08A
:1005B0000106A061F00701D026F010066C2D0BD0CB
:1005C000682D09D04C2D39D06A2D35D0742D35D0F9
:1005D0007A2D33D016E038E0E1682F462046884770
:1005E000B842054609D16C2F26D04FF48060E168EF
:1005F000064320468847054604E06C2F1AD04FF486
:10060000807006430DB3A5F14100192802D82035AA
:1006100046F400664A462946204626604E46FFF7C5
:100620002BFE80B101280BD0F61D26F0070000F14B
:10063000080956E74020E4E78020D8E70020D6E705
:1006400006F104094DE7284652E7206ABDE8F09F0D
:100650009881000040EA010310B59B070FD1042ADE
:100660000DD310C808C9121F9C42F8D020BA19BA7D
:10067000884201D9012010BD4FF0FF3010BD1AB1E2
:10068000D30703D0521C07E0002010BD10F8013B37
:1006900011F8014B1B1B07D110F8013B11F8014B5E
:1006A0001B1B01D1921EF1D1184610BD032A40F246
:1006B000308010F0030C00F0158011F8013BBCF104
:1006C000020F624498BF11F801CB00F8013B38BF1C
:1006D00011F8013BA2F1040298BF00F801CB38BF2A
:1006E00000F8013B11F0030300F00581083AC0F067
:1006F000088051F8043B083A51F804CBA0E80810F0
:10070000F5E7121D5CBF51F8043B40F8043BAFF322
:100710000080D20724BF11F8013B11F801CB48BF7C
:1007200011F8012B24BF00F8013B00F801CB48BFB2
:1007300000F8012B70474FF0000200B513469446B5
:100740009646203922BFA0E80C50A0E80C50B1F129
:100750002001BFF4F7AF090728BFA0E80C5048BF3D
:100760000CC05DF804EB890028BF40F8042B08BFDB
:10077000704748BF20F8022B11F0804F18BF00F8D7
:10078000012B70470000000030B44FF0013C50F8DE
:10079000042B51F8043BCCFA52F4D51A20D1FCB901
:1007A00050F8042B51F8043BCCFA52F4D51A17D167
:1007B000B4B950F8042B51F8043BCCFA52F4D51AD2
:1007C0000ED16CB950F8042B51F8043BCCFA52F41A
:1007D000D51A05D1002CDAD030BC4FF0000070479C
:1007E00029BAB1FA81F111F01801D1F12000844049
:1007F000F2D1CA40CB4012F0FF0213F0FF0330BC2D
:10080000D01A70477047704770472DE9F0470D4682
:1008100099469246044600F124080168880604D5EA
:10082000E06921F01001216000E00120A84201DD13
:10083000471B00E00027A1697A1902EB0900081A9A
:10084000A0612078C00602D42046FFF7DBFD002619
:1008500008E0D4E901211AF806009047206A401CFC
:10086000761C20624E45F4DB2078C0060AD520466F
:10087000FFF7C8FD06E0D4E9012130209047206A47
:10088000401C2062381EA7F10107F4DC07E0D4E920
:10089000012118F805009047206A401C2062281E9C
:1008A000A5F10105F3DC2046FFF7C2FD2078000624
:1008B00002D50220BDE8F0870120FBE701694A1C50
:1008C00002610878704700B58FB0CDE90131002191
:1008D000059105497944CDE9031011466846FFF7B3
:1008E000F5FD0FB000BD0000E5FFFFFF0A6802F84C
:1008F000010B0A60704710B5203AC0F00B80B1E8D8
:100900001850A0E81850B1E81850A0E81850203A44
:10091000BFF4F5AF5FEA027C24BFB1E81850A0E84D
:10092000185044BF18C918C0BDE810405FEA827C67
:1009300024BF51F8043B40F8043B08BF7047D2077E
:1009400028BF31F8023B48BF11F8012B28BF20F81F
:10095000023B48BF00F8012B7047754600F02CF8A9
:10096000AE4605006946534620F00700854618B09C
:1009700020B5FFF7A9FCBDE820404FF000064FF07E
:1009800000074FF000084FF0000BAC46ACE8C00980
:10099000ACE8C009ACE8C009ACE8C00921F0070127
:1009A0008D46704710B50446AFF300802046BDE881
:1009B0001040FFF775BC000000487047F0020020AF
:1009C00001491820ABBEFEE7260002007047000078
:1009D00080B5002007F03AFD0020BDE8804000F01F
:1009E00099B9000080B5052007F030FD0520BDE86D
:1009F000804000F08FB9000080B5062007F026FD8A
:100A00000620BDE8804000F085B9000080B50720D1
:100A100007F01CFD0720BDE8804000F07BB9000016
:100A200080B5012007F012FD0120BDE8804000F0F4
:100A300071B9000080B5022007F008FD0220BDE872
:100A4000804000F067B9000080B5032007F0FEFC8D
:100A50000320BDE8804000F05DB9000080B50420AF
:100A600007F0F4FC0420BDE8804000F053B900001A
:100A700080B540F6A400C2F20000A0210322642346
:100A800000F0A6FF002818BF012080BDB0B584B0DB
:100A9000044664200DF10F01029040F6A4000125E8
:100AA0000091C2F20000A0210B220123019501F068
:100AB00087F9A0B99DF80F00E12810D164200DF14D
:100AC0000E01029040F6A40001250091C2F2000040
:100AD000A0210A220123019501F072F910B12846E4
:100AE00004B0B0BD9DF80E0007289ABF2070002505
:100AF0000125284604B0B0BDB0B584B004466420DA
:100B00000DF10F01029040F6A40001250091C2F200
:100B10000000A02107220123019501F051F9A0B99D
:100B20009DF80F00C32810D164200DF10E01029032
:100B300040F6A40001250091C2F20000A021062287
:100B40000123019501F03CF910B1284604B0B0BD75
:100B50009DF80E0005289ABF207000250125284623
:100B600004B0B0BDB0B584B0044664200DF10F01EF
:100B7000029040F6A40001250091C2F20000A021DD
:100B800005220123019501F01BF9A0B99DF80F0082
:100B90003C2810D164200DF10E01029040F6A40013
:100BA00001250091C2F20000A02104220123019539
:100BB00001F006F910B1284604B0B0BD9DF80E0052
:100BC00003289ABF207000250125284604B0B0BD37
:100BD000B0B584B0044664200DF10F01029040F6D8
:100BE000A40001250091C2F20000A02109220123E6
:100BF000019501F0E5F8A0B99DF80F00D72810D1B4
:100C000064200DF10E01029040F6A4000125009130
:100C1000C2F20000A02108220123019501F0D0F8C2
:100C200010B1284604B0B0BD9DF80E0003289ABF4D
:100C3000207000250125284604B0B0BDB0B584B0B1
:100C4000044664200DF10F01029040F6A400012536
:100C50000091C2F20000A02103220123019501F0BE
:100C6000AFF8A0B99DF80F005A2810D164200DF1FB
:100C70000E01029040F6A40001250091C2F200008E
:100C8000A02102220123019501F09AF810B1284613
:100C900004B0B0BD9DF80E0002289ABF2070002558
:100CA0000125284604B0B0BDB0B584B00446642028
:100CB0000DF10F01029040F6A40001250091C2F24F
:100CC0000000A02101220123019501F079F8A0B9CB
:100CD0009DF80F00A52810D164200DF10E0102909F
:100CE00040F6A40001250091C2F20000A0210022DC
:100CF0000123019501F064F810B1284604B0B0BD9D
:100D00009DF80E0064289ABF207000250125284612
:100D100004B0B0BD70B584B00546E1208DF80E007A
:100D200001240DF10E00CDE9000440F6A400642674
:100D3000C2F20000A0210B220123029601F06CF9FF
:100D400020B10124204604B070BD00BF052000F092
:100D500089FC0DF10F00009040F6A400C2F20000E3
:100D6000A0210A2201238DF80F500296019401F070
:100D700053F90028E6D1052000F074FC0024204639
:100D800004B070BD70B584B00546C3208DF80E0068
:100D900001240DF10E00CDE9000440F6A400642604
:100DA000C2F20000A02107220123029601F034F9CB
:100DB00020B10124204604B070BD00BF052000F022
:100DC00051FC0DF10F00009040F6A400C2F20000AB
:100DD000A021062201238DF80F500296019401F004
:100DE0001BF90028E6D1052000F03CFC0024204639
:100DF00004B070BD70B584B005463C208DF80E007F
:100E000001240DF10E00CDE9000440F6A400642693
:100E1000C2F20000A02105220123029601F0FCF895
:100E200020B10124204604B070BD00BF052000F0B1
:100E300019FC0DF10F00009040F6A400C2F2000072
:100E4000A021042201238DF80F500296019401F095
:100E5000E3F80028E6D1052000F004FC0024204639
:100E600004B070BD70B584B00546D7208DF80E0073
:100E700001240DF10E00CDE9000440F6A400642623
:100E8000C2F20000A02109220123029601F0C4F859
:100E900020B10124204604B070BD00BF052000F041
:100EA000E1FB0DF10F00009040F6A400C2F200003B
:100EB000A021082201238DF80F500296019401F021
:100EC000ABF80028E6D1052000F0CCFB002420463A
:100ED00004B070BD70B584B005465A208DF80E0080
:100EE00001240DF10E00CDE9000440F6A4006426B3
:100EF000C2F20000A02103220123029601F08CF827
:100F000020B10124204604B070BD00BF052000F0D0
:100F1000A9FB0DF10F00009040F6A400C2F2000002
:100F2000A021022201238DF80F500296019401F0B6
:100F300073F80028E6D1052000F094FB0024204639
:100F400004B070BD70B584B00546A5208DF80E00C4
:100F500001240DF10E00CDE9000440F6A400642642
:100F6000C2F20000A02101220123029601F054F8F0
:100F700020B10124204604B070BD00BF052000F060
:100F800071FB0DF10F00009040F6A400C2F20000CA
:100F9000A021002201238DF80F500296019401F048
:100FA0003BF80028E6D1052000F05CFB0024204639
:100FB00004B070BD10B540F20044C4F202042046F3
:100FC0004FF48051012200F045FC642000F04AFB00
:100FD00020464FF480510022BDE8104000F03ABC9A
:100FE00010B50024C4F2020420464FF480610022B0
:100FF00000F030FC4FF4FA7000F034FB20464FF460
:101000008061012200F026FC642000F02BFB04F537
:10101000806420464FF40051012200F01BFC4FF485
:101020007A7000F01FFB20464FF400510022BDE80B
:10103000104000F00FBC000010B540F20044C4F2B4
:10104000020420464FF48041012200F003FC64209A
:1010500000F008FB20464FF480410022BDE810401C
:1010600000F0F8BBFEE7000070470000012000F030
:101070000FBB00004FF4007000F00ABB72B600BF57
:10108000FEE7000080B5012005F0D8FA0120BDE898
:101090008040FFF777BE000080B5002005F0CEFA53
:1010A0000020BDE88040FFF76DBE000040F2000068
:1010B000C2F200008068704770B581B000220092D3
:1010C00090F83C20012A03D1022001B070BD00BF7E
:1010D000D1F800E00122BEF10A0F1FFA8EFC80F861
:1010E0003C2009D34FEA4C02036812FA8EF2A2F1B7
:1010F0001E0403F10C0204E003680EEB4E0403F13E
:10110000100207251668A54026EA050515608D68BA
:10111000166805FA04F4344314604968062907D8B0
:1011200001EB81014A1F194651F8345F0FE000BFFF
:101130000C2901EB810105D8A1F12302194651F8D0
:10114000305F04E0A1F14102194651F82C5F1F24E1
:10115000944025EA04040C600CFA02F20C6842F296
:10116000043CC4F2010C2243ACF54174A3420A6072
:1011700006D0002180F83C10002001B070BD00BFF7
:101180001221BEF1110FC1F2000118BF8E453BD1F3
:10119000DCF800208E4522F48002CCF80020DCF838
:1011A000002042F40002CCF80020E2D140F2180105
:1011B000C2F2000109684DF68362C4F21B32A1FB42
:1011C0000212910C01EB8101490000910099002964
:1011D000CFD000BF00990139009100990029C8D0F3
:1011E00000990139009100990029C2D00099013974
:1011F000009100990029BCD0009901390091009913
:101200000029E7D1B5E700BFBEF1120FB1D1DCF87C
:10121000001021F40001CCF80010DCF8001041F4BB
:101220008001CCF80010A4E70068C06C7047000093
:10123000002804BF0120704710B5016C00293DD083
:10124000016CC90645D4016C41F20212914302318E
:1012500042F204320164C4F20102116821F4403107
:101260001160136890E812102343D0F810E0136067
:101270004A68012422F480724A604A68C0F6007409
:1012800042EA0E224A604A6822F040724A604A6886
:1012900042EA0C024A608A6822F400628A60C268EC
:1012A0008B681A438A60826A8B68A24223F070635B
:1012B0008B608B6810D123F0405216E0044600F09A
:1012C00065F820460021616484F83C10016CC90671
:1012D000B9D5012153E000BF1A438A608A6822F021
:1012E00040528A60C26A8B681A438A608A6822F018
:1012F00002028A608A68037E90F8204042EA430234
:101300008A604A6884B142F400624A604A684EF2D8
:10131000000322F460424A60426ACFF6FF734C68D1
:1013200003EB4232224301E022F400624A60CA6ABF
:1013300040F2000C22F47002CA62C3694269CFF61F
:10134000F07CCC6A0CEB03532343CB628B6823F411
:1013500000738B6090F830308C6844EA43238B60D4
:101360008B6823F480638B608B6843EA82228A60F7
:1013700000214164026C012363F301020264002234
:1013800080F83C20BDE8104008467047F0B587B0B3
:1013900042F200050068C4F201050026A842069644
:1013A000CDE904660396029602D007B0F0BD00BFF7
:1013B00043F630000196C4F20200416902AC41F4E8
:1013C000807141614169032701F4807101910199A4
:1013D0000196016841F001010160016801F001011D
:1013E000019101990196016841F0020101600068D4
:1013F000214600F00200019001984020029005F57E
:101400006040CDE9037600F04FF90220CDE90207F4
:1014100005F564402146049600F046F907B0F0BD9A
:1014200070B5044600680D468268520544BF806866
:101430005FEAC05038D400F013FA21680A689207B6
:1014400049D40646681C3CD0DDB90868800721D520
:10145000086880073FD4086880071BD508688007A4
:1014600039D40868800715D50868800733D4086820
:1014700080070FD508688007E7D52CE0086880074B
:1014800029D400F0EDF9801B2168A842F6D908683C
:101490008007F3D4206C40F004002064002084F81E
:1014A0003C00032070BD00BF206C40F02000206491
:1014B000002084F83C00012070BD00BF0868800750
:1014C00009D40868800706D4086880075CBF0868EC
:1014D0005FEA8070F2D56FF012000860206C40F473
:1014E00000702064886810F0405F01D0002070BD5B
:1014F000207E0028FAD1C86A10F4700F02D08868E4
:101500004005F3D4206C20F480702064206CC0046B
:10151000ECD4206C40F001002064002070BD00007D
:1015200010B581B00021009190F83C10012903D141
:10153000022001B010BD00BF0468012180F83C10FA
:10154000214651F8083FDB0729D10B684DF683622D
:1015500043F001030B6040F21803C2F200031B6862
:10156000C4F21B32A3FB02239A0C02EB420200924C
:10157000009AA2B1009A013A0092009A7AB1009AB8
:10158000013A0092009A52B1009A013A0092009AF0
:101590002AB1009A013A0092009A002AEAD10A6818
:1015A000036CD2070CD143F01001016400F1440137
:1015B00001200A6810430860002001B010BD00BF80
:1015C00040F2017223EA020202F58072026462684C
:1015D000520504D5026C012363F30D320264026CE0
:1015E0004FF0000C0023D20444BF426C22F00603EB
:1015F00042F2000E436480F83CC06FF02200C4F257
:10160000010E2060DEF80403C00609D074450BD13A
:10161000DEF8080010F0405F06D14FF08040C8E7C8
:10162000086810F0405FF8D0002001B010BD000045
:1016300090F83C10012904BF0220704701688A68B5
:1016400022F001028A608968C90705D1016C41F264
:101650000112914301310164002180F83C10002007
:1016600070470000B0B5044600F0FAF8054640F2B5
:101670000C00C2F200000078611C18BF044400BFD7
:1016800000F0EEF8401BA042FAD3B0BD7047000056
:1016900043F61441C4F201010A68024214BF086013
:1016A0007047FFF7F3BF00002DE9F04F83B000F162
:1016B000200200F13E4741F20005009207F1FF775A
:1016C000C4F2020507224FEAB726A84208BF042247
:1016D00000254FF000084FF00009042E38BF4FEAF4
:1016E000B72201920AE000BF09F1010908F10208DE
:1016F000B9F1100F05F1040500F0A2800F68012276
:1017000002FA09FE17EA0E0AEED0D1F804C003224D
:101710000CF003077E1E02FA08F4012E6FEA040B98
:1017200012D88468CE6804EA0B0406FA08F634433B
:101730008460446824EA0E06CCF3001404FA09F429
:101740002643466004E000BF032F01D103271EE0BB
:10175000C6688C6806EA0B0604FA08F42643022FD2
:10176000C66014D16FF00302009E02EA590756F8D2
:1017700007C005F01C040F220B69A2402CEA0202EC
:10178000A3401A43F251D1F804C00CF003070268D9
:1017900007FA08F302EA0B021A431CF4403F026006
:1017A000A2D0002243F644030292C4F202031A6854
:1017B00043F6004442F480421A601A68C4F20104FD
:1017C00002F480420292029A29F003024FF6084C7A
:1017D0002244CFF6FF7C52F80C3005F00C070F26A0
:1017E000BE40B343019E06FA07F73B4342F80C3074
:1017F000A2684B6842EA0A0743F60C4CDE0258BF67
:1018000022EA0A07A760C4F2010CDCF800209E025D
:1018100042EA0A0758BF22EA0A07CCF80070626859
:101820009E0342EA0A0758BF22EA0A076760226855
:10183000DB0342EA0A0758BF22EA0A07276053E798
:1018400003B0BDE8F08F00000069084018BF012018
:1018500070470000002A08BF09048161704700003A
:1018600040F60C70C2F2000000687047002804BF08
:1018700001207047F0B581B0044690F83D0028B9CA
:10188000002084F83C00204600F074FC242084F8FA
:101890003D002068016821F001010160016841F408
:1018A00000410160016821F40041016001F0E0FFA6
:1018B000636848F2A16CC0F2010C40F60011C0F25E
:1018C0003D0163453CBF48F28041C0F21E018842A1
:1018D00002D2012001B0F0BD4DF68361C4F21B318C
:1018E000A0FB01122168970CD1F804E04FF4967622
:1018F0002EF03F0545EA92454D60774348F638168D
:101900000D6AC0F24106A7FB067625F03F07634546
:1019100038BF960C721C3A430A62CA6948F2A06644
:101920004CF6FF77C0F20106B34222EA07020BD859
:1019300001385B00B0FBF3F001306FF31F30042877
:1019400098BF04201BE000BFA768013857B11927D2
:101950007B43B0FBF3F001306FF31F3070B100F543
:10196000804007E003EB4303B0FBF3F001306FF37B
:101970001F3018B100F5004001E000BF0120104306
:10198000C8610868D4E9072320F0C0001043184359
:101990000860886848F2FF3204F10C0790438CCF4E
:1019A00018431043A6698860C86820F0FF003843D8
:1019B0003043C860086840F0010008600020202122
:1019C000206484F83D10206384F83E0001B0F0BD2F
:1019D0002DE9F04F83B01E46924688460446FFF735
:1019E0003FFF94F83D10202924D12168054600BF0F
:1019F000886980071AD5FFF733FF401B21681A2832
:101A0000F6D388698007F3D500202021206384F86D
:101A10003D1084F83E00216C41F02001216484F8DF
:101A20003C00022003B0BDE8F08F00BF94F83C00FA
:101A3000012803D1022003B0BDE8F08F4FF0010967
:101A400084F83C900868C00703D1086840F00100A2
:101A500008600868002720F400600860242084F8EB
:101A60003D000020CFF6FF702764E06208F0FE081A
:101A7000BAF1010F88BFD1464FF0A00A4FF0200BFA
:101A800004E000BF01374F4500F0A2800868002243
:101A900040F48070086020464FF0011133460095F5
:101AA00002F0C6FC2168002856D1C1F81080FFF76B
:101AB000D7FE21684B694A6994F83D50A02D054630
:101AC00005D013F0020008BF12F480601AD084F829
:101AD0003DB048690A68800742F400720A6045D444
:101AE0006FF48060486100BF88698007CAD5FFF73E
:101AF000B7FE401B21681A28F6D388698007F3D502
:101B00004AE000BFB6B100BFFFF7AAFE401BB042DB
:101B100088BF84F83DA021684A69486994F83D303F
:101B2000A02BD4D012F0020208BF10F48060EBD0DA
:101B3000CDE700BFFFF794FE84F83DA021684A6915
:101B4000486994F83D30A02BC1D012F00202BED1FA
:101B500010F48060EED0BAE70868C00544BF4FF4C7
:101B600000702064032003B0BDE8F08F00200290D5
:101B700048690290886902900298886901E000BF74
:101B8000806980071AD5FFF76BFE411B20681A2970
:101B9000F6D381698907F3D500202021206384F8DA
:101BA0003D1084F83E00216C41F02001216484F84E
:101BB0003C00012003B0BDE8F08F00BF202084F876
:101BC0003D00002084F83C0003B0BDE8F08F00BF6A
:101BD000202084F83D00002084F83C00012003B060
:101BE000BDE8F08F2DE9F04383B01E4617468946C5
:101BF0000446FFF735FE94F83D10202924D1054610
:101C0000206800BF816989071AD5FFF729FE411BAB
:101C100020681A29F6D381698907F3D5002020218D
:101C2000206384F83D1084F83E00216C41F02001CF
:101C3000216484F83C00022003B0BDE8F08300BFBB
:101C400094F83C10012903D1022003B0BDE8F083D1
:101C5000012184F83C100168C90703D1016841F0F3
:101C600001010160016840F2020821F40061016095
:101C7000212184F83D10102184F83E1000212164B8
:101C800067626685618DC0F201082185A8F10211A5
:101C9000E162E16A0A9E11F5803F18BF01291DD15A
:101CA000016841F48071016020464FF0011100226B
:101CB0003346009502F0BCFB50B120680068C005B7
:101CC00044BF4FF400702064012003B0BDE8F083EE
:101CD0002069B0F5804F07D1FE2015E00829DFD03C
:101CE000216B1229DCD0DFE7062000EAD910216839
:101CF000F030086108F10601204632462B4602F01A
:101D00007DFC0028E0D1FF20216800EA090008617D
:101D10002046414632462B4602F070FC0028D3D1C3
:101D20000020029020684169029180690290029827
:101D300006E000BF204631462A4602F01BFB18BBD6
:101D4000208D68B3204631462A4602F00BFDD8B9F3
:101D5000606A2168024612F8013B0B616262628D83
:101D6000013A6285228D531E23854F697F07E1D595
:101D70001B04DFD0437802300B616062608D013854
:101D80006085901E2085D5E7206C04289CD12068B2
:101D9000016841F400710160012003B0BDE8F083E7
:101DA0002068016841F400710160202084F83D0042
:101DB000002084F83E0084F83C0003B0BDE8F083C6
:101DC0002DE9F04784B0994616460F460446FFF7C2
:101DD00047FD94F83D10202927D10546206800BF13
:101DE000816989071CD5FFF73BFD411B20681A2933
:101DF000F6D381698907F3D500202021206384F878
:101E00003D1084F83E00206C04F13C0A40F02000B4
:101E10002064022000218AF8001004B0BDE8F08799
:101E2000A2461AF83C1F012904D1022004B0BDE8E3
:101E3000F08700BF01228AF800200368DDE90D1851
:101E40000C9ADB0703D1036843F0010303600368C6
:101E500023F400630360222084F83D00402084F8CE
:101E60003E000020206462626185608D39462085D5
:101E70000020CFF6FF70E062204632464B46CDE9A7
:101E8000008502F089F918B1012004B0BDE8F0879F
:101E9000208D08B3022813D0012835D121680A68A3
:101EA00022F480620A60002203924A6903928A69DE
:101EB0000392039A0A6842F400720A602CE000BFA1
:101EC00021680A6822F480620A600A6842F40062AB
:101ED0000A60002203921AE0002003902068416902
:101EE0000391816903910399016841F400710160D4
:101EF000202084F83D00002084F83E0000218AF86C
:101F0000001004B0BDE8F0870021039121684A6900
:101F100003928969039103990427C0F201070CE039
:101F200010690870606A218D01306062481E20854A
:101F3000618D013961850104DAD080B203280FD8A0
:101F400002284AD001282DD1204641462A4602F0D7
:101F5000C1FB002898D12068616A0069E1E700BFF1
:101F6000204641462A4602F0B5FB00287FF48CAF9C
:101F70002068616A00690870606A2268411C208DCF
:101F8000616201382085638D013B638553695B077E
:101F9000D1D580B20328C3D1106820F480601060CE
:101FA000BEE700BF2046394600224346009502F0B6
:101FB0003FFA00287FF468AF2068616A026822F463
:101FC0008062026000690870606A218D0130606281
:101FD000481E2085608D01386085204639460022E4
:101FE0004346009502F024FA00287FF44DAF2068A4
:101FF000616A026842F40072026000690870606AF7
:102000002268411C6162218D01392185618D013970
:1020100061851169417085E72DE9F04383B09946E8
:1020200016460F460446FFF71BFC94F83D10202986
:1020300024D10546206800BF816989071AD5FFF7BA
:102040000FFC411B20681A29F6D381698907F3D553
:1020500000202021206384F83D1084F83E00216C8C
:1020600041F02001216484F83C00022003B0BDE867
:10207000F08300BF94F83C10012903D1022003B083
:10208000BDE8F083012284F83C200368DDE90B18E9
:102090000A9ADB0703D1036843F001030360036876
:1020A00023F400630360212084F83D00402084F87D
:1020B0003E000020206462626185608D3946208583
:1020C0000020CFF6FF70E062204632464B46CDE955
:1020D000008502F0EBF818B1012003B0BDE8F083F1
:1020E000208D98B9204641462A4602F043F988B32C
:1020F000206C0428F0D12068016841F4007101606F
:10210000012003B0BDE8F0830004EBD02046414637
:102110002A4602F027FB0028EAD1616A22680846B5
:1021200010F8013B1361238D6062581E2085678D76
:10213000013F678557697F07E6D50704E4D04878F3
:102140001061881C6062981E2085618D013961854F
:10215000DAE700BF2068016841F4007101602020C7
:1021600084F83D00002084F83E0084F83C0003B071
:10217000BDE8F0832DE9F04786B0006845F60041E0
:10218000C4F2000100268842CDE90466CDE902666A
:1021900001962DD045F20041C4F2000188426BD176
:1021A000002443F630050094C4F20205286801A912
:1021B00040F002002860286800F0020000900098BB
:1021C000C02001901220CDE90204032004900420D5
:1021D000059040F20040C4F20200FFF765FA009457
:1021E000286940F400102861286900F4001041E0DB
:1021F00043F630070096C4F20207386840F2004404
:1022000040F0010038603868C4F2020400F00100B8
:10221000009000980096386801AD40F002003860E8
:1022200038684FF4807800F0020000900098042095
:102230004FF012094FF0030A0590A4F5806029467B
:10224000CDF80480CDE90296CDF810A0FFF72CFA66
:102250000920059020462946CDE90189CDE9036A88
:10226000FFF722FA0096386940F4000038613869B7
:1022700000F400000090009806B0BDE8F087000070
:102280002DE9F04186B00446006844F20C058168EF
:1022900043F20448C4F20005C4F20008059108F5B1
:1022A0007F77291FB84208BF08F10401096808F5C3
:1022B000406604914168B8420391314604BF43F23D
:1022C0000441C4F200010A680292626842F400729A
:1022D000B2F5007F4CD10599890744BF03995FEAA5
:1022E00001617BD40498C00721D0029840061ED516
:1022F0002068E16AB84208BF08F108052A6821F899
:10230000022BE162618E01396186618E79B9B84232
:10231000304608BF4046016821F060010160608DD1
:1023200028B9012084F84100204600F0E5F804981F
:10233000400644BF02985FEA80606BD405980007AE
:1023400044BF03985FEA806044D520684168B84282
:1023500021F0A001416008BF4646316821F06001CC
:10236000316000210191806801900198B6E000BFC2
:10237000049A920744BF029A5FEA02626AD40598FF
:10238000C00719D00398400616D52068E16AC268D4
:1023900021F8022BE162618E01396186618E59B9A3
:1023A000416821F060014160608D28B9012084F806
:1023B0004100204600F0A0F80598400644BF03986D
:1023C0005FEA806066D40498000744BF02985FEA21
:1023D000806077D406B0BDE8F08100BF616A31F853
:1023E000022B6162C260618D01396185618D0029B6
:1023F0007FF478AF416821F0A0014160608E002831
:102400007FF470AF012084F84100204600F074F89A
:1024100068E700BF20683146B84208BF41460A68F5
:1024200022F060020A60416821F0A00141600021B1
:102430000191C1680191806801900198012084F8A0
:102440004100606C40F002006064204600F056F8E5
:1024500074E700BF626AB84232F8023B626208BFAA
:1024600008F108052B60608D01386085608D0028BB
:102470007FF485AF086820F0A0000860608E002817
:102480007FF47DAF012084F84100204600F034F84D
:1024900075E700BF20684168B84221F060014160E3
:1024A000304608BF4046016821F0A00101600120CC
:1024B00084F84100606C40F002006064204600F047
:1024C0001DF880E72068B84208BF4646316821F011
:1024D000A0013160416821F060014160012084F871
:1024E0004100606C40F004012046616406B0BDE824
:1024F000F04100F003B80000704700007047000092
:10250000002804BF012070472DE9F041044690F8EF
:10251000410050B9002084F8400044F62100C0F684
:1025200000006063204600F0A5F8022184F8411005
:1025300020686269C36940F6BF76B343022AC3616B
:10254000016203D12169022244E000BFD4E90206FE
:10255000002521284FF0010038BF012500F0F6FFCB
:102560002169B1F5007F07D1E368626963B1072390
:10257000002E08BF06230BE00522002E08BF042210
:102580002A44D040626905E00823002E08BF0723D3
:102590002B44D84000EB80004000B0FBF2F04CF63A
:1025A000CD420530CCF6CC42A0FB02206FF0FF02FA
:1025B00002EB101212F1FE0F06D2606C40F0100018
:1025C00060640120BDE8F081020900F00803206882
:1025D00042EA431211430162C16940F6BF7CD4E96B
:1025E000015821EA0C06E26846EA0806A369164388
:1025F0002E431E4346F40066C661266A012E31D181
:1026000042F2812643F21C4EC0F60006C4F2000ED0
:1026100066630EF579760EF54067B04204BF43F26B
:102620001C47C4F200073968B04221EA0C01396046
:1026300044F22001C4F200014FF0020008BF0EF185
:102640000401086038686FF400714FF400660D42B1
:1026500008BF4FF41066304340EA080010431843A7
:1026600080B2386000200121606484F84110BDE828
:10267000F0810000B0B58CB0006843F20004C4F2F1
:102680000104A0424FF000000B90CDE90900CDE914
:102690000700CDE9050001D00CB0B0BD01200190CC
:1026A000C020039010200290022501A8049500F09C
:1026B00079FF002818BFFEF7E1FC002043F6300147
:1026C0000090C4F202014A6942F480524A614A69A8
:1026D00002F480520092009A00900A6842F00102CF
:1026E0000A60096801F001010091009948F2A00117
:1026F000CDE909000520CDE907150B9004F5504000
:1027000007A9FEF7D1FF0CB0B0BD00007047000074
:102710007047000040F20C0040F60C71C2F200005D
:10272000C2F2000100780A68104408607047000097
:1027300080B543F60040C4F20200016841F4007124
:102740000160016841F480610160016841F48071B9
:102750000160032000F09CF80F2000F005F800F065
:1027600027F8002080BD000070B540F20C06C2F2D0
:10277000000640F218013278C2F200014FF47A7379
:102780000968B3FBF2F20446B1FBF2F1084601F02E
:102790003FFB0F2C4FF0010508D838B94FF0FF3040
:1027A00021460022002500F047F87460284670BDDD
:1027B00082B0002043F640010190C4F202014A6851
:1027C00042F480424A604A6802F480420192019ACF
:1027D0000090086840F080500860086800F0805061
:1027E0000090009802B07047002848BF704700F082
:1027F0001F01012202FA01F11C2202EAD0004EF26E
:102800008012CEF200028150BFF34F8FBFF36F8F63
:1028100070470000002848BF704700F01F010122E8
:1028200002FA01F11C2202EAD0004EF20012CEF2AE
:10283000000281507047000010B54EF60C5CCEF2DD
:10284000000CDCF80030C3F3022E8EF00704042CD9
:1028500028BF0424BEF103034FF0FF3E0EFA04F438
:1028600038BF0023A14399400EFA03F39A43114362
:1028700000F00F0200F160430901043A03F56443DC
:102880006244002848BF02F10C03197010BD00001B
:102890004EF60C51CEF200010A684FF6FF031A40C3
:1028A00060F30A2242F0806040F0FD7008607047DB
:1028B000704700007047000070470000704700003C
:1028C000704700002DE9F04F87B005688246284622
:1028D00004F00AFE10B107B0BDE8F08FDAF800008E
:1028E00004F030FE0028F6D0D5F80808C0F30D211A
:1028F000DAF80000CAF8D41404F024FE0146DAF82D
:102900000000890703D5416901F00201416105F525
:102910000061049104F016FE0146DAF80000C906D1
:10292000059535D5816921F0100181612C6A04F08B
:102930000F0000EBC0000AEB8001C4F343400628FF
:1029400001F5157512D002281BD147F6F07014EA74
:10295000000616D0E96834090598224604F0F6FD11
:10296000E86800EB1610E86008E000BF05980AF27E
:102970009C41082204F0EAFDC4F30A14686920446B
:102980006861DAF80000816941F010018161059DFC
:1029900004F0D8FD000340F1F180DAF8000004F003
:1029A000AFFD002800F0EA8006460AF29C404FF492
:1029B000306800244FF0000B069019E005EB08008A
:1029C00002218160B80642BF05EB0800202181602A
:1029D000B80442BF05EB08004FF4005181600BF1D1
:1029E000010B760808F1200804F1240400F0C680E9
:1029F000F007F4D0DAF800005FFA8BF9494604F0EA
:102A000099FD0746C00760D005EB080001218160F1
:102A1000DAF8000008EB0001036C8A689AF80650A7
:102A2000012D25D1150733D4950600F19F8043F27F
:102A30000B05C4F65475AB42059D02D312F4004257
:102A400030D10AEB0402D2F8743209696FF3DF4126
:102A5000A3EB0101C2F868129CBBD2F86432002BD0
:102A600000F08A80D2F860020844C2F8600228E0D0
:102A700043F20B05C4F65475FF35AB4218D1059DE2
:102A800010040FD4900644BF2020886019E000BFD6
:102A900043F20B00C4F65470059D834215D312F423
:102AA000004012D04FF40040886038070FD43DE05A
:102AB000059D34B9DAF8641219B90021069A04F0B8
:102AC000EFFB50464946FFF7F9FE38072ED505EBD8
:102AD000080008218160DAF8000043F20B02056C5F
:102AE00040448168C4F6547295420BD311F40041FE
:102AF00008D04FF400418160504600F0E9FC059D8C
:102B00000AE000BF504600F0E3FC43F20B00C4F6BD
:102B100054708542059D09D39AF80600012805D115
:102B2000DAF80000069A012104F0BAFBF80642BF69
:102B300005EB080010218160B8077FF543AF686995
:102B4000000604D50499486840F4806048600AEBA8
:102B5000040090F8571201297FF430AF002180F86B
:102B600057125046494600F02FFB27E72020886087
:102B7000059D3807ABD4D9E701219FE7DAF80000BB
:102B8000CDF818A004F0DEFC400340F1D380069895
:102B9000006804F0ADFC002800F0CC8006460698E2
:102BA00005F5106900F1140100F29C400027039123
:102BB0000190CDF8089004E0760807F1010700F0D5
:102BC000B980F007F8D006985FFA87FA0068514696
:102BD00004F09EFC0446C00726D0049A07F00F00BC
:102BE000516B012303FA00F021EA0000506309EB66
:102BF0004710836006988079012811D1039907EB6B
:102C0000C70001EB8000D0E902121144C1603FB956
:102C1000006928B90698019A0068012104F040FB78
:102C200006985146FFF748FE200742BF09EB4710C0
:102C300008218160E00642BF09EB47101021816046
:102C4000600642BF09EB471040218160A00716D5FE
:102C50002846394604F0DAFB039907EBC70001EB7D
:102C6000800010F8031F012905D10021017006988A
:102C7000514600F0A7FA09EB4710022181602006B7
:102C80009AD5039907EBC70001EB8008D8E9042027
:102C9000824291D30699D8F808300C68111A9942EB
:102CA00038BF0B4604EB4711D1F818C903F1030EE6
:102CB0001FFA8CF3B3EB9E0F2DD301F5106900BF03
:102CC000D8F81020824224D9101A069AD8E902B105
:102CD0009579584538BF83461FFA8BF320465246F4
:102CE0000095059D04F0C8FED8F80C00D8F8141023
:102CF0005844C8F80C0001EB0B00C8F81400D9F8D0
:102D000018100BF1030289B2B1EB920FD8D2D8F8A8
:102D10001020DDF8089082423FF64EAF07F00F001A
:102D2000D4F83418012202FA00F021EA0000C4F8B5
:102D3000340841E7DDF81890D9F8000004F002FCEF
:102D4000002821D4D9F8000004F0FCFB00053AD497
:102D5000D9F8000004F0F6FBC00445D50499486892
:102D600020F001004860D9F80000102104F04EFB6B
:102D700099F80400010600F0EC80C1B2042900F0CB
:102D8000030035D200219AE00499486820F0010040
:102D9000486099F8CC04012808D1002089F8CC04B7
:102DA00048460021FFF784FD03E000BF484600F0DD
:102DB0008BFBD9F80000416901F00041416104F04A
:102DC000C1FB0005C4D504988068C00702D04846FE
:102DD00000F080FBD9F80000416901F40061416115
:102DE00004F0B0FBC004B9D4D9F80000DDE000BFA6
:102DF0006FF0600202EA411200234FF67F37002194
:102E0000EE18C6F80879D6F80059803325F4001575
:102E1000C6F80059C6F8087BD6F8005B9A4225F43C
:102E20000015C6F8005BD6F8005B01F1040145F01F
:102E30000065C6F8005BC6F82879D6F8205925F455
:102E40000015C6F82059C6F8287BD6F8205B25F473
:102E50000015C6F8205BD6F8205B45F00065C6F883
:102E6000205BC6F84879D6F8405925F40015C6F815
:102E70004059C6F8487BD6F8405B25F40015C6F8E3
:102E8000405BD6F8405B45F00065C6F8405BC6F88D
:102E90006879D6F8605925F40015C6F86059C6F867
:102EA000687BD6F8605B25F40015C6F8605BD6F841
:102EB000605B45F00065C6F8605B059DA0D1002809
:102EC00047D005F5106202EB41134FF67F374E01F4
:102ED0009F609559059B25F4001503F530639551C6
:102EE00003EB4115AF609D59012825F400159D5154
:102EF0009D5945F000659D512BD04E1C02EB4614A8
:102F00007501A760545903EB461624F4001454517C
:102F1000B7605F59022827F400175F515F5947F0E7
:102F200000675F5115D0881C02EB40174FF67F36C3
:102F30004101BE60575803EB401027F4001757506B
:102F40008660585820F400105850585840F00060DF
:102F50005850049F8421F869442240F00110F86120
:102F600099F80F0000284FF00B0008BF142108BF8C
:102F700042F22B007B5808BF102218437850B858F3
:102F800040F00B00B850386809F29C4220F4FE6013
:102F90003860D9F8000099F8061004F081F9D9F8E2
:102FA0000000416901F48051416104F0CBFA01460F
:102FB000D9F8000089041AD503F0B2FDD9F8000051
:102FC00004F084FAD9F8004089F8070000F04AFCC0
:102FD00099F807200146204604F0C2FC484600F05C
:102FE00071FAD9F80000416901F40051416104F01F
:102FF000A9FA000706D4D9F8000004F0A3FA0006E5
:103000000DD437E0484600F061FAD9F80000416974
:1030100001F00801416104F095FA00062AD50599EE
:10302000886920F08000886199F80400022821D383
:1030300009F5157409F11405012640F27B2704E017
:103040000136864207F1240714D219F80710012926
:10305000F6D106F00F0000EBC0023006D9F80000F0
:1030600005EB820158BF04EB820104F047F999F89F
:103070000400E5E7D9F8000004F064FAC0024BD47C
:10308000D9F8000004F05EFA059D80027CD599F81D
:103090000410022926D305F53260013909F51F72A3
:1030A000012304E02030013902F124021AD007681C
:1030B0001678012EF6D1B7F1FF3FF3DCD9F8D464CE
:1030C00086EA1747FF07EDD102F8013CAF6947F0E8
:1030D0008007AF616F693F06E4D40499486840F403
:1030E00000704860D9F80000416901F400114161A5
:1030F00004F028FA40004DD54846FFF7DBFBD9F82D
:103100000000416901F08041416104F01BFA400771
:103110007FF5E1AB45E000BF99F80400022827D312
:10312000059909F1140401F5126509F13B064FF008
:103130000108012706E000BF01372035874206F16C
:10314000240615D229687278012AF5D1B1F1FF3F22
:10315000F2DC07F00F0000EBC001D9F8000004EB2F
:10316000810186F8008004F0C9F899F80400E3E7CB
:10317000D9F80000416901F48011416104F0E2F9DD
:10318000059D80023FF583AFD9F8000004F0DAF91D
:103190004000B1D4D9F8000004F0D4F940077FF51D
:1031A0009AABD9F800004468610704D54846FFF798
:1031B00087FBD9F8000041682143416007B0BDE8B2
:1031C000F08F00007047000070470000002804BF27
:1031D00001207047F0B581B00446056890F8950469
:1031E00028B9002084F89404204600F027F9032031
:1031F000B5F1A04F84F8950404BF0020A0712068A9
:1032000004F046F894E80F00267C009603F098FC42
:10321000002840F000812068002104F0EDF900282A
:1032200040F0F98094F804E0BEF1000F00F0EC806B
:103230000EF0030CBEF1040F4FF0000240D30EF06D
:10324000FC03A4F190000321012500BFCE1E80F8ED
:10325000A460A0F8BE608E1E80F8C860A0F8E2608E
:103260004E1E80F8EC60A0F8066180F81011A0F8FE
:103270002A110E1D013180F8A55080F8A820C0E960
:103280002B22C0F8B42080F8C95080F8CC20C0E9C7
:103290003422C0F8D82080F8ED5080F8F020C0E942
:1032A0003D22C0F8FC2080F8115180F81421C0E9BB
:1032B0004622C0F82021903099423146C6D1F21EF4
:1032C000BCF1000F31D004F1140002EBC20100EB9D
:1032D0008105012300F821200021BCF1010F6B7052
:1032E0006A832971C5E9021129611ED0551C05EBBD
:1032F000C50600EB8607BCF1020F7B7000F8265074
:103300007D833971C7E9021139610ED0911C01EB3F
:10331000C10200EB8203012500F8221000205D703D
:1033200059831871C3E902001861BEF1000F6BD018
:10333000BEF1040F4FF0000236D30EF0FC00032163
:10334000234600BFCF1E83F854728F1E83F8787215
:103350004F1E83F8C0120D1D013183F8552283F8EA
:103360005822C3E99722C3F8642283F8792283F8AC
:103370007C22C3E9A022C3F8882283F89D2283F827
:103380009C7283F8A022C3E9A922C3F8AC2283F877
:10339000C12283F8C422C3E9B222C3F8D0229033F9
:1033A00081422946CED1EA1EBCF1000F2CD004F593
:1033B000157002EBC20300EB83070021BCF1010F83
:1033C000797000F823203971C7E9021139611BD0E7
:1033D000531C03EBC30700EB8706BCF1020F7170AF
:1033E00000F827303171C6E9021131610CD0911C0F
:1033F00001EBC10200EB820300275F7000F822108E
:103400001F71C3E902771F6194E80F00277C0097C2
:1034100003F0E2FC30B1022084F89504012001B0F1
:10342000F0BD00BF00206074012084F8950420687E
:1034300003F0C2FC002001B0F0BD0000B0B586B0C2
:1034400000680024B0F1A04F0594CDE90344029434
:10345000019401D006B0B0BD43F630050094C4F22B
:103460000205286801A940F001002860286800F0E2
:103470000100009000984FF4C05001900220CDE967
:103480000204032004900A2005900020C4F20200E8
:10349000FEF70AF96868002140F080006860009437
:1034A0006869002240F480406861686900F48040E7
:1034B000009000984320FFF7BFF94320FFF7AAF9D7
:1034C00006B0B0BD704700007047000070470000B4
:1034D000704700007047000081B02020C4F20E2029
:1034E0000121016047F20000C4F200000068009072
:1034F000009801B07047000047F20003C4F20003D7
:103500001A684EF6105C22F003021043CEF2000C53
:103510001860DCF80000032940F00400CCF800003B
:103520000CD0012908D130BFDCF8000020F00400E5
:10353000CCF80000704700BF40BF20BF20BFDCF8C0
:10354000000020F00400CCF80000704701281CBFE8
:103550000020704743F68400C4F2020050F87C1C3F
:10356000090242BF48F20000C0F2BB00704750F8A9
:10357000801C0268490247F64001C0F27D1102F04A
:103580003F025CBF42F20041C0F2F4010368B1FBAC
:10359000F2F10068C3F388125143C0F30270B1FB2B
:1035A000F0F07047F0B581B00446006810F0050FE8
:1035B0002DD06827C4F2472743F670060020C4F2D6
:1035C00002063860FEF74CF9054600BF56F8700C4D
:1035D000000105D5FEF744F9401B0228F6D93DE06D
:1035E000221D07CA40EA811040EA02707061012082
:1035F0003860FEF735F9054656F8700C000105D421
:10360000FEF72EF9401B0228F6D927E02068810733
:1036100058D543F670060020C4F20206009056F812
:10362000300C47F2000740F0805046F8300C56F856
:10363000300CC4F2000700F0805000900098386809
:1036400040F480703860FEF70BF905463868C00515
:1036500008D4FEF705F9401B0228F7D9032001B072
:10366000F0BD00BF306810F4407013D0216901F440
:10367000407188420ED0306840F64061C4F2472164
:10368000012220F440700A6000220A603060306835
:10369000C00723D12068216956F8682C4FF6FF47F0
:1036A00001F4407322F4F812C0F6FF770F40B3F52F
:1036B000407F08BF3A4346F8682C32686FF31F31E9
:1036C00011433160000706D5207D40F64061C4F209
:1036D0004721C1F8A003002001B0F0BDFEF7C0F8FB
:1036E000054641F2883700BF30688007D2D4FEF724
:1036F000B7F8401BB8424FF00300F5D9ECE70000E3
:10370000002804BF012070472DE9F04143F6080866
:10371000C4F202080446D8F8F8030D4600F007008A
:10372000884207D288F8F853D8F8F80300F0070069
:10373000A84277D12068810717D5410705D5D8F869
:10374000001041F4E051C8F80010010705D5D8F881
:10375000001041F46041C8F80010D8F80010A268C9
:1037600021F0F0011143C8F80010C00740D1D8F88B
:10377000F80300F00700A84207D988F8F853D8F8F2
:10378000F80300F00700A8424CD12068410707D594
:10379000D8F80010E26821F4E0511143C8F8001095
:1037A000000708D5D8F80000216920F4604040EAFD
:1037B000C100C8F8000000F083F8D8F8001048F203
:1037C000A862C1F30311C0F60002515C40F2180276
:1037D00020FA01F140F21000C2F200000068C2F2CB
:1037E00000021160FEF7C0FF0020BDE8F08100BFBD
:1037F0006068811E022907D258F8081C89015CBF45
:103800000120BDE8F08111E0012807D158F8081C1B
:1038100089035CBF0120BDE8F08107E058F8081C6F
:10382000890703D40120BDE8F08100BFD8F800105B
:1038300021F003010843C8F80000FEF711F806461E
:1038400041F28837D8F80000616800F00C00B0EB56
:10385000810F8CD0FEF704F8801BB842F2D9032008
:10386000BDE8F08140F21800C2F200000068704725
:1038700040F2180043F60801C2F20000C4F202014F
:103880000068096848F2B862C1F38221C0F60002FC
:10389000515CC8407047000040F2180043F6080130
:1038A000C2F20000C4F202010068096848F2B8627E
:1038B000C1F34231C0F60002515CC84070470000BD
:1038C00010B543F60404C4F20204606800F00C0072
:1038D00008280BD0042819BF42F20040C0F2F400BF
:1038E00047F64000C0F27D1010BD00BF206821687F
:1038F0002368490247F64001C0F27D1100F03F0203
:10390000C3F388105CBF42F20041C0F2F401A1FB96
:1039100000010023FCF7EAFC21680222C1F3014107
:1039200002EB4101B0FBF1F010BD0000002804BF24
:10393000012070472DE9F04182B00446007843F63B
:103940000006C007C4F202060CD0B06800F00C00FC
:10395000042840F081803068800303D56068002827
:1039600000F06881207880071BD5B06810F00C0F3C
:1039700009D0B06800F00C00082840F0878070681B
:10398000400200F183803068800703D5E068012899
:1039900040F050813068216920F0F80040EAC10011
:1039A00030602078000713D4207840072AD4A56916
:1039B000002D00F03A81B06800F00C00082840F0BB
:1039C000A580012D40F00E81012002B0BDE8F081FC
:1039D0006069002800F082800020C4F247200121A5
:1039E000C0F8801EFDF73CFF054600BF706F8007E2
:1039F000DAD4FDF735FF401B0228F7D9032002B0C7
:103A0000BDE8F081306C5FEAC0080AD40020019064
:103A1000306C40F080503064306C00F08050019089
:103A2000019847F20007C4F200073868C00547D480
:103A3000386840F480703860FDF712FF054600BF1B
:103A40003868C0053CD4FDF70BFF401B0228F7D9AE
:103A5000032002B0BDE8F081B06800F00C00082837
:103A600003D1706840023FF576AF61683068B1F508
:103A7000803F07D0B1F5A02F40F09A8040F480201D
:103A80003060306840F4803030609AE0E0680028B0
:103A900040F20000C4F247205CD001210160FDF734
:103AA000DFFE0546306880073FF574AFFDF7D8FEAE
:103AB000401B0228F6D9032002B0BDE8F08100BF08
:103AC000A168306F012905D0052955D140F00400C7
:103AD0003067306F40F00100306756E00020C4F2DC
:103AE00047200021C0F8801EFDF7BAFE054600BF42
:103AF000706F80077FF558AFFDF7B2FE401B0228BC
:103B0000F6D9032002B0BDE8F08100BF0027C4F25F
:103B1000472700203866FDF7A3FE022D05460DD18C
:103B20003068800140F18A80FDF79AFE401B022830
:103B30004FF00300F4D902B0BDE8F0813068800195
:103B400073D5FDF78DFE401B02284FF00300F5D919
:103B5000F1E700BF00210160FDF782FE054600BFCE
:103B6000306880077FF51DAFFDF77AFE401B022805
:103B70004FF00300F4D9DEE720F001003067306F2A
:103B8000002920F0040030677AD0FDF769FE054671
:103B900041F28837306F800700F18480FDF760FEC6
:103BA000401BB842F6D9032002B0BDE8F08100BF47
:103BB00020F4803030603068002920F480203060AC
:103BC0007AD0FDF74DFE0546306880033FF5CAAE5A
:103BD000FDF746FE401B6428F6D9032002B0BDE87D
:103BE000F08100BF7068E16900F480028A4221D14F
:103BF000216A00F03F028A421CD147F6C071626A16
:103C00000140B1EB821F15D1A16A4FF6FF73C903C2
:103C1000994300F44032A1F580318A420AD1E16A29
:103C200000F07060B0EB016F04D1002002B0BDE87D
:103C3000F08100BF012002B0BDE8F08104F11C0555
:103C40002FCD084340EA8210D9034FF6FF7291430B
:103C5000A1F5803140EA05600843706001203866B4
:103C6000FDF7FEFD044600BF30688001DDD4FDF79E
:103C7000F7FD001B02284FF00300F5D95BE700BFFA
:103C8000FDF7EEFD054641F2883700BF306F800733
:103C900008D5FDF7E5FD401BB8424FF00300F5D90C
:103CA00049E700BFB8F1000F3FF581AE306C20F05E
:103CB000805030647BE600BFFDF7D2FD054600BFB3
:103CC000306880037FF54EAEFDF7CAFD401B6428C7
:103CD0004FF00300F4D92EE74EF21000CEF20000B0
:103CE000016841F0020101607047000070B528B121
:103CF000416A29B100210161142106E0012070BD53
:103D00004168B1F5827F02D01C210022425000267A
:103D1000866290F8511029B980F85060054600F08D
:103D20003DF82846022180F8511090E82E0002F458
:103D300082720C6803F4044324F040040C601A44BB
:103D400005F4006305691A4405F0020345691A4445
:103D500005F001038569C4691A4405F400731A4427
:103D600004F03803046A1A4404F08003846A1A4396
:103D700004F400531A430A60436A042202EA15421B
:103D800003F010031A444A60CA6922F40062CA614F
:103D90000121466580F85110304670BD80B586B06F
:103DA00043F600410068C4F20001002288420592F7
:103DB000CDE903220292019202D006B080BD00BF7D
:103DC00043F630000092C4F20200036943F400435A
:103DD0000361036903F400430093009B00920368AE
:103DE00043F002030360006800F0020000900098B6
:103DF000382001900220CDE9020203200490062021
:103E0000059001F5E43001A9FDF74EFC06B080BD38
:103E1000411E0020B0EB116F1CBF012070474EF215
:103E20001002CEF2000251604EF62351CEF2000194
:103E3000F0230B7007219060116070474EF2100064
:103E4000CEF20000016821F002010160704700001D
:103E500090F83C20012A4FF0020241D010B580F8C2
:103E60003D200268D2F804E0D2F808C00C682EF0B9
:103E70007003234340F6FF34C4F20004A2425360AF
:103E800010DCB2F1804F1ED040F20043C4F20003B8
:103E90009A4218D040F60003C4F200039A4212D0AE
:103EA00016E000BF40F60043C4F200039A420AD075
:103EB00044F20003C4F201039A4204D00023C4F286
:103EC00001039A4204D149682CF0800319439160A0
:103ED0000121002280F83D1080F83C20BDE8104010
:103EE00010467047002804BF012070472DE9F047B5
:103EF000044690F83D000D4628B9002084F83C00A7
:103F0000204600F049F8022084F83D00206844F281
:103F10000702816891438160211D02F011FD206834
:103F20004FF6FF7881688269D0F820C0D5E9003E5D
:103F3000D5E9026A43EA0109AB6922EA080246EAC6
:103F400003234FF6FC46B343D5E9076742EA0A026A
:103F500029691A4342EA062242EA01112CF0AA0218
:103F60006B6942EA0E0241EA073142EA0312C0F8E5
:103F7000089081610262012084F8460084F83E00C6
:103F800084F83F0084F8420084F8430084F83D0040
:103F90000020BDE8F087000080B586B000680021F1
:103FA000B0F1804F0591CDE903110291019101D04B
:103FB00006B080BD43F630000091C4F202000269F1
:103FC00042F001020261026902F001020092009ACD
:103FD0000091026842F001020260006800F00100F6
:103FE00000900098032001900220CDE902010120F9
:103FF000059000200491C4F2020001A9FDF754FBD2
:1040000006B080BD80B590F83E2090F83F3090F823
:1040100042E090F843C004290AD0B9B9012A4FF010
:10402000010208BFBEF1010F34D0104680BD00BFB1
:10403000012B4FF0010208BFBCF1010FF5D10221A5
:1040400080F83F1080F8431000681EE0012A4FF00E
:10405000010208BF012BE8D1BEF1010FE5D1BCF18F
:10406000010FE2D1022280F83E2080F83F2080F844
:10407000422080F8432091B10068016A21F00101DB
:104080000162016A41F00101016210216FF010022A
:1040900009E000BF022180F83E1080F8421000685D
:1040A00001216FF00102036A1A400262026A1143A1
:1040B00001620168002241F001010160104680BDEB
:1040C000002804BF0120704710B5044690F8410055
:1040D00028B9002084F84000204600F021F8242070
:1040E00084F841002068C16821F40051C160204675
:1040F00002F0A2FC2068016921F49041016141694C
:1041000021F02A014161C16841F40051C1600020E1
:104110002021606484F8411084F84210606310BD6F
:1041200080B586B044F200410068C4F2000100226C
:1041300088420592CDE903220292019202D006B094
:1041400080BD00BF43F630000092C4F20200036954
:1041500043F400330361036903F400330093009BCD
:104160000092036843F001030360006800F001005F
:10417000009000980C2001900220CDE9020203205B
:1041800004900720059001F5DE3001A9FDF78CFAB7
:1041900006B080BDFEE700002DE9F04782B004467E
:1041A00000689A460B9D0A9E0368914643F480621C
:1041B000026002680F4642F48071016020464FF0B1
:1041C000011100223346009500F032F950B1206809
:1041D0000068C00544BF4FF400702064032002B0A3
:1041E000BDE8F08740F202082068C0F2010807F03D
:1041F000FE0707612046414632462B4600F0FEF995
:1042000020B1012002B0BDE8F08700BF002001907E
:1042100020682A46416901918069314601900198E0
:10422000204600F09FFAB0B92068BAF1010F09D01A
:104230004FEA19210161204631462A4600F092FAE0
:1042400048B920685FFA89F10161204631462A4663
:1042500000F088FA60B1206C0428D2D1206801688F
:1042600041F400710160012002B0BDE8F08700BF99
:10427000206800220168334641F4807101602046C5
:104280004FF00111009500F0D3F800289FD147F0BE
:10429000010C27682046414632462B46C7F810C01D
:1042A00002B0BDE8F04700F0A9B900002DE9F043E5
:1042B00083B0044600680F4601680A9D0B9E41F4D6
:1042C000807199469046016020464FF0011100220E
:1042D0002B46009600F0ACF850B120680068C0058D
:1042E00044BF4FF400702064032003B0BDE8F083A6
:1042F000206807F0FE0101610221C0F201012046A1
:104300002A46334600F07AF920B1012003B0BDE817
:10431000F08300BF0020029020683246416902917C
:104320008069294602900298204600F01BFA58B195
:10433000206C0428E9D12068016841F40071016013
:10434000012003B0BDE8F0832068B9F1010F0AD065
:104350004FEA1821016120462946324600F002FA50
:104360000028E5D120685FFA88F10161002003B0E0
:10437000BDE8F08370B50368044653F8140F400796
:1043800011D40E46481C29D086BB00BF18684005D2
:1043900027D4FDF765FA236853F8140F400737D583
:1043A00018684007F2D5002070BD00BF18684007AC
:1043B000F9D41868400514D418684007F3D4186875
:1043C00040050ED418684007EDD41868400508D49D
:1043D000186840074FF0000048BF70BD18684005DE
:1043E000E4D56FF480601860042012E0154603E005
:1043F00053F8140F4007D6D418684005F1D4FDF7E0
:104400002FFA401B2368B042F2D958694007EFD415
:10441000202000212022216384F83D2084F83E10D2
:10442000226C10432064012084F83C1070BD000011
:104430002DE9F041054600681E46144601F47F024E
:1044400001338FB242D0DDF81880B2F5803F40F0E2
:10445000878040693840C01BB0FA80F04009A04214
:1044600040F0C8804EB924E040693840C01BB0FA23
:1044700080F04009A04240F0BD80FDF7F1F9A0EBCB
:1044800008012868B142EFD941693940C91BB1FA26
:1044900081F14909A142E7D19BE000BF4069384062
:1044A000C01BB0FA80F04009A0424FF0000040F07D
:1044B000A280FDF7D5F9286841693940C91BB1FAD6
:1044C00081F14909A142E9D183E000BFB2F5803F03
:1044D00024D100BF41693940C91BB1FA81F14909B2
:1044E000A14240F0878041693940C91BB1FA81F18E
:1044F0004909A14240F07E8041693940C91BB1FAA7
:1045000081F14909A14275D141693940C91BB1FA0C
:1045100081F14909A142DDD06CE000BF81693940D9
:10452000C91BB1FA81F14909A14263D181693940BE
:10453000C91BB1FA81F14909A1425BD181693940B6
:10454000C91BB1FA81F14909A14253D181693940AE
:10455000C91BB1FA81F14909A142DFD04AE000BF8D
:1045600080693840C01BB0FA80F04009A04241D1B8
:1045700046B923E080693840C01BB0FA80F040099A
:10458000A04237D1FDF76CF9A0EB08012868B142D1
:10459000F0D981693940C91BB1FA81F14909A142B9
:1045A000E8D116E080693840C01BB0FA80F04009BD
:1045B000A0424FF0000018BFBDE8F081FDF750F9B0
:1045C000286881693940C91BB1FA81F14909A142C2
:1045D000E8D100202021286385F83D1085F83E00B1
:1045E000296C41F02001296485F83C000120BDE8D8
:1045F000F08100BF0020BDE8F0810000F0B581B07F
:10460000044600681D4643698FB203EA0701B942B8
:1046100002D1002001B0F0BD4169164601323CD004
:10462000490512D47EB300BFFDF71AF9411B20687B
:10463000B14203D941693940B9422BD1416939406E
:10464000B942E6D041694905EED5016841F40071EF
:1046500001606FF480614161042000212022216308
:1046600084F83D2084F83E10226C1043206484F8C6
:104670003C10012001B0F0BD41693940B942C8D0B9
:1046800041694905E1D4FDF7EBF8206841693940FB
:10469000B942F1D02020E0E741694905D5D441690C
:1046A0003940B942B5D041694905CED44169394054
:1046B000B942AED041694905C7D441693940B942D0
:1046C000A7D041694905C0D441693940B942E3D115
:1046D0009FE7000070B504460068154650F8143F87
:1046E0005A063DD40E4629B926E000BF50F8141FE3
:1046F000490635D40168C90621D4FDF7B1F8411B3C
:104700002068B142F2D941694906EFD40020202146
:10471000206384F83D1084F83E00206C40F02000B7
:1047200018E000BFFDF79CF8206850F8141F4906F8
:10473000ECD50168490613D40168C906F2D56FF0BB
:104740001001016000202021206384F83D1084F8CE
:104750003E00206C2064002084F83C00012070BDE5
:10476000002070BD70B50368044653F8140F0006AE
:1047700011D40E46481C29D086BB00BF18684005DE
:1047800027D4FDF76DF8236853F8140F000637D5CA
:1047900018680006F2D5002070BD00BF186800063A
:1047A000F9D41868400514D418680006F3D41868C2
:1047B00040050ED418680006EDD41868400508D4EA
:1047C000186800064FF0000048BF70BD186840052B
:1047D000E4D56FF480601860042012E0154603E011
:1047E00053F8140F0006D6D418684005F1D4FDF72D
:1047F00037F8401B2368B042F2D958690006EFD45D
:10480000202000212022216384F83D2084F83E10DE
:10481000226C10432064012084F83C1070BD00001D
:1048200010B584B001688A68039290F84120042A88
:1048300037D1039AD20717D04A68520614D5CA68EE
:10484000C36A23F8022BC362428E013A4286428E2B
:1048500052B94A68044622F060024A60012180F899
:104860004110FDF753FF20460399490619D5016809
:104870004A68920615D54A68044622F060024A60EA
:1048800000220292CA68029289680291029901216B
:1048900080F84110416C41F002014164FDF72EFEA9
:1048A000204690F84110032917D1039989070DD5A7
:1048B00001684A68120609D5426A32F8023BCB60A9
:1048C0004262428D013A4285428DFAB1039909074D
:1048D00003D501684A68920602D404B010BD00BF37
:1048E0004A6822F0A0024A60002201928968019180
:1048F0000199012180F84110416C41F004014164AB
:1049000004B0BDE81040FDF7F9BD00BF4A68044699
:1049100022F0A0024A60012180F84110FDF7F8FE64
:10492000204603990907D4D4D7E70000B0B584B076
:1049300040F6080042F2000101220024C2F2000009
:10494000C4F20101C0F6007201250394047680F8D8
:104950002040C0E90A24C56180F83040C0E9001455
:10496000C0E90244C0E90445FCF762FC002818BF16
:10497000FCF784FB0920CDE9000540F60800C2F2EF
:10498000000069460294FCF797FB002818BFFCF76B
:1049900075FB04B0B0BD00002DE9F04F87B00027D3
:1049A00043F630000697CDE90477CDE90277019709
:1049B000C4F20200016840F2000B41F00401016002
:1049C0000168C4F2020B01F0040101910199019701
:1049D00001680BF5806541F08001016001680022EB
:1049E00001F0800101910199019701684FF4E849B4
:1049F00041F001010160016801F00101019101999B
:104A00000197016841F00201016000684FF4E8413C
:104A100000F00200019001982846FCF71BFF584661
:104A20004FF4C06100224FF4C068FCF713FF4FF44D
:104A3000005002AE02904FF4881A0BF50060314628
:104A4000CDE903A7FCF730FE1020CDE90207584658
:104A500031460497FCF728FE48F20120CDE9020A0E
:104A6000284631460497FCF71FFE012428463146AC
:104A7000CDF80890CDE903470597FCF715FE584699
:104A80003146CDE90284CDE90477FCF70DFE07B08D
:104A9000BDE8F08F80B540F6500045F20041C2F20B
:104AA0000000C4F2000148F2A06200234FF4804CE1
:104AB000C0F2010280E80E00C0E9033CC0E9053302
:104AC000C0E90733FCF7D2FE002808BF80BDBDE86F
:104AD0008040FCF7D3BA000080B540F6A40045F64C
:104AE000004C41F68022C2F20000C4F2000CC0F279
:104AF00006024FF480430021C0E900C2C0E9023140
:104B0000C0E90431C0E906110162FCF7AFFE0028DC
:104B100008BF80BDBDE88040FCF7B0BA80B540F664
:104B2000F80043F20001C2F20000C4F201010023C8
:104B30004BF6803C4FF4007280E80E00C0E903336E
:104B4000C0E905C3C0E90733FDF7DAFC002808BF58
:104B500080BDBDE88040FCF791BA000080B540F60A
:104B6000246043F60041C2F20000C4F200014FF499
:104B7000827200234FF4007C80E80E000A21C0E915
:104B80000333C0E9053CC361C0E90833C0E90A3119
:104B9000FFF7ACF8002808BF80BDBDE88040FCF7F7
:104BA0006DBA000080B58CB040F67C600021C2F286
:104BB00000004FF080424FF0FF33C0E90021012296
:104BC000CDE90011C0E9021301618161CDE9032142
:104BD000CDE90521CDE90711CDE909210B9103A903
:104BE000FFF780F9002818BFFCF748FA40F67C6010
:104BF000C2F200006946FFF72BF9002818BFFCF746
:104C00003DFA0CB080BD000080B540F6C46044F2AF
:104C10000041C2F20000C4F2000100234FF00C0C6E
:104C20004FF4E13280E80E00C0E90333C0E905C368
:104C3000C361FFF745FA002808BF80BDBDE880408A
:104C4000FCF71CBA80B540F64010C2F200004FF0ED
:104C5000A0410160042101714FF40071C180022163
:104C6000C0F809100021C181FEF7B0FA002808BF82
:104C700080BDBDE88040FCF701BA0000FEE70000FF
:104C800070B540F25034C2F20004207800283FD0C2
:104C90002179207A884247D2216900EB800001EB1C
:104CA0008005A868002818BF8047EE6856B1287CA8
:104CB00040B12979207100202170266120720120E5
:104CC00031E000BF286849F2B941C0F60001FBF7A6
:104CD0005BFD58B128792178884225D0A6B1297C7E
:104CE0002070002026612171207270BD207B012878
:104CF0000ED00020207020722073FCF7D7F9BDE899
:104D0000704001F0D5BC00BF207B012818BF70BDEA
:104D10000120207040F25C10C2F2000020610720E8
:104D2000207100202072207370BD000040F25030CE
:104D3000C2F2000000214173704700002DE9F04FDE
:104D400089B082460220C2FA50F401200D468DF847
:104D50002300002605218DF81F000DF123001F46BA
:104D600005928DF822608DF821608DF82010FBF7F8
:104D700065FF0DF12200FBF7F5FE0DF12100FBF7B9
:104D8000BBFE08A8FBF782FE0DF11F00FBF720FF1A
:104D9000E0B2291A019538BF3146CDE90201800001
:104DA00050FA84F00AEB80044FF000094FF000083D
:104DB00015E000BF05980422ABEB0000B0FA80F0CC
:104DC000430909F11800C1B2712000F04FFA08F14F
:104DD0000108DDF818901434B8F1030F7AD0039865
:104DE000404577D00298BA4600EB080605985FFA6E
:104DF00086FB834509F11000069009D1C1B200205D
:104E0000802210230027009700F048FB012700E0D4
:104E10000027B01E0490226809F1120048F6F863DA
:104E2000C1B20420C0F60003751E033E009700F0D7
:104E30004FFE5746BAF1030F10D1022D0ED89DF840
:104E4000230055EA0001B5D00499002908BF0128C4
:104E5000B0D0002EBBD10228ACD0B8E7042F07D1C8
:104E6000072D05D89DF820008542A3D0AFE700BFED
:104E7000052F13D1022D11D89DF8220055EA00010B
:104E800098D00499002908BF01283FF493AF002E61
:104E90009DD103283FF48EAF99E700BF062F0DD1B7
:104EA000012D0BD89DF82100002D08BF01283FF4EB
:104EB00081AF049908433FF47DAF88E7072F7FF463
:104EC00086AF032D3FF683AF9DF81F0085423FF468
:104ED00071AF7CE7019C032C1CD9059803280AD3E9
:104EE00048F2C86300270DA2C0F600037820002115
:104EF000009700F0C1FD02980330A0420AD248F2A8
:104F0000C863002706A2C0F6000378203821009766
:104F100000F0B2FD09B0BDE8F08F00BF5E000000F8
:104F20007600000080B540F25030C2F2000000214F
:104F3000017001720173FCF7B9F8BDE8804001F01F
:104F4000B7BB000040F25030C2F20000007870475A
:104F500040F2503040F25C12C2F20000C2F2000295
:104F60000021026107220170027101720173704712
:104F700040F25030C2F20000807B704740F2503067
:104F8000C2F20000407B70472DE9F04182B040F250
:104F90005035C2F20005687B10B102B0BDE8F08167
:104FA00040F67C60C2F200000068406A6969411AFC
:104FB000B1F5004FA8BFA1F5803111F5004FD8BF62
:104FC00001F58031022913D32A786AB12A7A02299D
:104FD00006DB2B79013B934206DD012302E000BF93
:104FE00012B1FF231A442A7201F00101401A6861CC
:104FF00040F20040C4F202004FF40071FCF724FCC0
:1050000040F21406C2F2000631780446012908BFB6
:10501000002C05D0002908BF002C49D10AE000BFB0
:10502000FCF71EFC3178A8610020E873002908BF56
:10503000002C3DD12878D8BBFCF712FCA969401A96
:10504000B0F57A7F38D3A0F57A77380940F20111AC
:105050007C28E98100F2828000F004FD48F60873A4
:105060004FF0000845A2C0F6000327200A21CDF822
:10507000008000F02DFD0E202D2164220C23CDF8A0
:10508000008000F0A7FB142F0FD3B8B24CF6CD412F
:1050900048436FF0010101EB1050C2B20F202E21E6
:1050A0000A23CDF8008000F0F9F901F035F903E0AA
:1050B000002908BF012C31D02878347000283FF433
:1050C0006CAFE87B00287FF468AF00F0CBFC2C7855
:1050D000601EC0B206281CD848F28C61C0F60001E0
:1050E00051F8202048F6F8630026C0F6000300209F
:1050F0000021009600F0ECFC00200E217F220E2300
:10510000009600F0EBF9286929792A7A2346FFF7FF
:1051100015FE02B0BDE8F04101F0FEB8FCF7A0FBBF
:10512000E97B012902D10020E881C5E7A969401A7D
:10513000B0F57A7F18D928780028BDD0287B0128BF
:1051400018D10120287040F25C10C2F200002861E2
:1051500007202871002028722873ADE70120A5F8E8
:105160000D0002B0BDE8F081152828BFFFF788FDCB
:10517000A2E700BFFFF7D6FE9EE700BFE585B3E6D6
:105180009CBA000080B5012001F060FA0120BDE862
:105190008040FBF72FBE000080B5002001F056FADA
:1051A0000020BDE88040FBF725BE000080B503204D
:1051B00001F04CFA0320BDE88040FBF71BBE000065
:1051C000FEE7000070B582B040F2847440F6A4059A
:1051D000C2F200048D20C2F2000560704FF0FF366D
:1051E00028467821224602230096FCF7FBFC10207B
:1051F000607028467821224602230096FCF7F2FCD4
:10520000AE20607028467821224602230096FCF7E3
:10521000E9FC02B070BD000070B582B040F2847449
:1052200040F6A405C2F200048D20C2F200056070B1
:105230004FF0FF3628467821224602230096FCF7DD
:10524000D1FC142060702846782122460223009663
:10525000FCF7C8FCAF206070284678212246022364
:105260000096FCF7BFFC02B070BD00002DE9F04FC6
:1052700087B002900320A0EB420600200091059029
:1052800018E000BF0598019E013031B2062705B233
:1052900007EB8007801AB1F1FF3FC8BF013A12B295
:1052A0004FF00A01C8BF01EB800795423E440595C7
:1052B00000F3F08002980196841A151820B28542F6
:1052C00062DA02980599441A01EB000820B2804581
:1052D000D8DB009901275018C6B200F00700891AE0
:1052E00007FA00F05FFA81F901F007010490C0436A
:1052F00007FA01F140F284370690F00803916FEA53
:10530000010B4FEAD901C2F2000707EBC11107EB0D
:10531000C01009E011F80C7007EA0B0701F80C70D7
:10532000013427B2B845ADDB5FFA84FC3F2E04F0B0
:10533000800715D8A7B90027B9F13F0F88BF01270B
:1053400010F80CA000EB0C0E47EADC1783B1069DA9
:10535000002F05EA0A058EF80050DBD0E0E700BF19
:10536000B9F13F0FDCD8002FDAD1002BD2D106E003
:10537000049D002F45EA0A058EF80050D0D111F89F
:105380000C70039D2F43C9E70098059E3718861BB4
:105390005FFA86FA06F007060120F9B200FA06F66F
:1053A0006FEA06083F294FEADA0C06962ED9BAF1C1
:1053B0003F0F3FF686AF33B919E000BF013420B28A
:1053C0008542FFF67EAF2006F8D440F28431C2F267
:1053D000000104F07F0001EBCC110F5C07EA080725
:1053E0000F54EBE7013420B28542FFF66AAF200686
:1053F000F8D440F28431C2F2000104F07F0001EBE6
:10540000CC110F5C069E37430F54EBE707F00707FC
:10541000B8406FEA000B4FEAD10E049006E000BFDF
:105420008155013420B28542FFF64BAF2106F8D4F6
:1054300040F28430C2F20000E6B2002100EBCE1050
:10544000BAF13F0F88BF012110F80690871941EA91
:10545000D6117BB109EA0B0000293870E1D140F286
:105460008430C2F2000000EBCC10815D01EA08013B
:10547000D6E700BF0498002940EA09003870D0D16F
:1054800040F28430C2F2000000EBCC10815D069F38
:105490003943C5E707B0BDE8F08F0000002B08BF17
:1054A00070472DE9F04381B00646DDF820801044B6
:1054B0001C4689460025C7B205EB0900C1B230463B
:1054C0003A460B46CDF8008000F008F80135E8B206
:1054D000A042F1D301B0BDE8F04370472DE9F04F91
:1054E000099E904238D199421A4647B288BF0A466F
:1054F000002F39D4994240F2843738BF0B4601213E
:10550000C2F2000726B917E00133DEB296422BD86B
:10551000DEB23F2EF8D803F0F80607EB061603F0CC
:105520000705345C01FA05F524EA05053554EBE777
:105530000133DEB2964217D8DEB23F2EF8D803F020
:10554000F80607EB061603F00705345C01FA05F5CB
:1055500025433554ECE700BF994207D190421146EC
:1055600088BF01463F2B6BD9BDE8F08FA2EB000C42
:10557000A3EB010EBCF1010F4FF0010B4FF0010A3C
:10558000B8BF4FF0FF3BBEF1010FB8BF4FF0FF3A7D
:10559000BCF1000F48BFCCF1000CBEF1000F48BFBA
:1055A000CEF1000EF44540F28F8040F284390023A2
:1055B0004FF00108C2F2000976B92FE00EFA83F32A
:1055C0001C045844BCEBE43F04B21DB2DCBF5144A0
:1055D000A5EB0C039442C7D00406EFD4CEB23F2E05
:1055E000ECD806F00705C1F3C406C4B209EBC61631
:1055F000375D08FA05F527EA05053555DEE700BFF2
:105600000EFA83F31C045844BCEBE43F04B21DB211
:10561000DCBF5144A5EB0C039442A5D00406EFD4A3
:10562000CEB23F2EECD806F00705C1F3C406C4B2D3
:1056300009EBC616375D08FA05F53D433555DFE73A
:1056400003F007070125904205FA07F538BF024627
:10565000002E4FEAD30300F0858040F28437C2F277
:105660000007E84307EBC31305E000BF0432D7B2DD
:105670008F423FF679AF57B2002F03D4D7B2DE5D29
:105680000640DE55561CF7B28F423FF66DAF76B23C
:10569000002E02D4DE5D0640DE55961CF7B28F4226
:1056A0003FF662AF76B2002E02D4DE5D0640DE55D4
:1056B000D61CF7B28F423FF657AF76B2002ED5D444
:1056C000DE5D0640DE55D1E740F2843900224FF01E
:1056D0000108C2F2000986B931E000BF0CFA82F27B
:1056E00014045144BEEBE43F0CB215B2DCBF584485
:1056F000A5EB0E029C423FF437AF0406EED4CEB2C7
:105700003F2EEBD806F00705C1F3C406C4B209EB7F
:10571000C616375D08FA05F527EA05053555DDE7B4
:105720000CFA82F214045144BEEBE43F0CB215B201
:10573000DCBF5844A5EB0E029C423FF415AF0606B1
:10574000EED4CEB23F2EEBD8C1F3C404C7B209EBFE
:10575000C41406F00706E55D08FA06F63543E5557C
:10576000DEE700BF40F28430C2F2000000EBC3105D
:1057700005E000BF0432D3B28B423FF6F5AE53B220
:10578000002B03D4D3B2C75C2F43C754571CFBB2C2
:105790008B423FF6E9AE7FB2002F02D4C75C2F43A5
:1057A000C754971CFBB28B423FF6DEAE7FB2002F90
:1057B00002D4C75C2F43C754D71CFBB28B4288BFAF
:1057C000BDE8F08F7FB2002FD4D4C75C2F43C754FD
:1057D000D0E700002DE9F04182B006461044DDF824
:1057E0002080C5B21F4630462A460B460C46CDF8EF
:1057F0000080FFF773FE3819C7B2304639462A4693
:105800003B46CDF80080FFF769FE30462146324620
:105810003B46CDF80080FFF761FE284621462A4628
:105820003B46CDF80080FFF759FE02B0BDE8F0819D
:105830002DE9F04381B040F2847440F6A405C2F231
:105840000004AE20C2F2000560704FF0FF3628461B
:105850007821224602230096FCF7C4F94FF0200875
:10586000284678212246022384F801800096FCF71E
:10587000B9F910272846782122460223677000963E
:10588000FCF7B0F9B0206070284678212246022348
:105890000096FCF7A7F9C8206070284678212246B8
:1058A00002230096FCF79EF94FF000092846782164
:1058B0002246022384F801900096FCF793F92846CB
:1058C00078212246022367700096FCF78BF940206E
:1058D000607028467821224602230096FCF782F960
:1058E0008120607028467821224602230096FCF72A
:1058F00079F9DF206070284678212246022300963D
:10590000FCF770F9A1206070284678212246022316
:105910000096FCF767F9A620607028467821224699
:1059200002230096FCF75EF9A820607028467821D3
:10593000224602230096FCF755F93F206070284666
:105940007821224602230096FCF74CF9A4206070CF
:1059500028467821224602230096FCF743F9D320FB
:10596000607028467821224602230096FCF73AF917
:10597000284678212246022384F801900096FCF7FD
:1059800031F9D520607028467821224602230096FE
:10599000FCF728F9F020607028467821224602237F
:1059A0000096FCF71FF9D92060702846782122461E
:1059B00002230096FCF716F9222060702846782111
:1059C000224602230096FCF70DF9DA206070284683
:1059D0007821224602230096FCF704F91220607019
:1059E00028467821224602230096FCF7FBF8DB20AC
:1059F000607028467821224602230096FCF7F2F8D0
:105A0000284678212246022384F801800096FCF77C
:105A1000E9F88D20607028467821224602230096FE
:105A2000FCF7E0F814206070284678212246022313
:105A30000096FCF7D7F840F28430C2F200004FF431
:105A40008061FAF778FE00F067FCAF2060702846AE
:105A50007821224602230096FCF7C4F801B0BDE885
:105A6000F083000080B540F28430C2F200004FF4B1
:105A70008061FAF760FE80BD2DE9F04782B09A465A
:105A8000137813B30646DDF828809AF8010089469A
:105A9000571E00BF9AF80050A3F12002EB1DDAF860
:105AA0000410DC08C3B202FB03F000FB0412F0B2E6
:105AB0004946CDE9005800F033F99AF80100BB7867
:105AC0000644002B07F10107E4D102B0BDE8F087DE
:105AD0002DE9F04F87B092F800900492B9F1000FD1
